:020000040800F2
:10000000E01F0020B1290108B9250108BB2501081E
:10001000BD250108BF250108C12501080000000019
:10002000000000000000000000000000C3250108DF
:10003000C525010800000000C7250108C9250108E1
:10004000252A0108292A01082D2A0108312A010838
:10005000352A0108392A0108D12501083D2A01085D
:10006000412A0108452A0108492A01084D2A0108A8
:10007000512A0108552A0108592A01085D2A010858
:10008000612A0108652A0108692A01086D2A010808
:10009000712A0108752A0108792A01087D2A0108B8
:1000A000812A0108852A0108892A01088D2A010868
:1000B000912A01080000000000000000952A0108B4
:1000C000992A01089D2A0108A12A0108A52A0108E8
:1000D000A92A0108AD2A0108B12A0108B52A010898
:1000E000B92A0108BD2A0108000000000000000034
:1000F0000000000000000000000000000000000000
:1001000000000000C12A010800000000C52A010803
:100110000000000000000000C92A0108CD2A0108E3
:10012000D12A0108D52A0108D92A0108DD2A0108A7
:10013000E12A0108000000000000000000000000AB
:10014000E52A0108E92A0108ED2A0108000000005B
:10015000F12A0108F52A0108F92A0108FD2A0108F7
:10016000012B0108052B0108092B010800000000E4
:100170000D2B0108112B01080000000000000000F9
:10018000152B0108192B01081D2B010800F5E07043
:100190000268914203D343681A44914202D38068B3
:1001A0000028F5D170471849086880B94FF480508D
:1001B00048604FF480324FF0FF30C860086104207F
:1001C000124B8A604861C3F8BC01114808600120E5
:1001D000704701F1080313F0070F0EBF0023C3F1AE
:1001E000080303F007031944D21A8161C26042F088
:1001F00001034B60091D4FF0280C41F802C0024A70
:100200001369C36170470000B00D00208809002009
:100210006859883C2DE9F84F84B00646AFF300805A
:10022000F52E1E4D80F00F820B2E31BF10260B369F
:10023000F608F6002868F408E04010F0030F4AD0F2
:10024000C04300F00100041905F1280000EBC408C8
:10025000E700D8F808607068C008C000B84218BF4E
:1002600001F002FAD6F80890464508BF01F0FCF903
:100270004E4508BF01F0F8F97068C008C000B842E8
:1002800018BF01F0F1F9C8450AD12868012101FA27
:1002900004F420EA04042C6010E000BF8809002068
:1002A0002869814508D3D9F80C10B14204D1C8F8A7
:1002B0000890C9F80C8001E001F0D6F947F003007E
:1002C000311D7060301DCA5942F00102C25106F161
:1002D000080800F010BFA968B14280F09F83002891
:1002E00000F0A2804FF0010808FA04F1490000FA7A
:1002F00004F4484201430C4060420440641E200B59
:1003000000F01000C440610901F00801CC40A208CF
:1003100002F00402D440630803F002030818DC4032
:100320001018C4F3400718183818FC40241805F1B9
:10033000280000EBC40AE700DAF80890D9F80400B6
:10034000C008C000B84218BF01F08EF9D9F808B053
:10035000D14508BF01F088F9D94508BF01F084F9FB
:10036000D9F80400C008C000B84218BF01F07CF9F9
:10037000DA4506D1286808FA04F420EA04042C605F
:100380000DE029698B4508D3DBF80C00484504D102
:10039000CAF808B0CBF80CA001E001F065F9BF1B6A
:1003A00046F0030009F10402C9F8040047F0010116
:1003B000915109EB06020192D751AC684FEAD40A79
:1003C000BAF11F0F88BF01F04FF934B3CDF800A088
:1003D00005F128006E6900EBCA0AD346102C38BF1D
:1003E00001F042F92968009821FA00F2D30704D4F9
:1003F00008FA00F00843286007E0DAF808002969E5
:1004000088422CBF834601F02FF9CAF80860CBF868
:100410000C60C6F808B0C6F80CA0AF6009F1080877
:100420000198686100F067BE6868002800F01783D3
:1004300041420840401E010B01F01001C840420932
:1004400002F00802D040830803F00403D8404408B7
:1004500004F002045118E0405918C0F34007611835
:1004600005F598787918F840401858F82010486831
:10047000C008C0008A46A0EB060B08E001464868A9
:10048000C008C000801B58453CBF83468A460869A7
:100490000028F3D149690029F1D128698245C0F0CB
:1004A000CF80DAF80410C90806EB0B09C9004945EA
:1004B00018BF01F0D9F80AEB06008245019080F0E0
:1004C000BF80DAF80C40DAF8187054450DD0DAF82D
:1004D00008002969884223D3C268524504BFA16835
:1004E00051451DD1C460A0601CE00AF114010C68E4
:1004F00034B90AF110010C68A4B101E011460C688E
:1005000004F114021068002802BF04F11002106800
:100510000028F3D12869814202D300220A6001E059
:1005200001F0A2F8002F34D0DAF81C0008EB8000AC
:1005300001688A4509D1046094B9DAF81C00696839
:10054000012282409143696023E02869874205D3F4
:100550003969514514BF7C613C6101E001F084F8C8
:10056000BCB129698C4212D3A761DAF8100028B116
:10057000884226BF2061846101F076F8DAF8140021
:1005800038B12969884202D36061846101E001F0D9
:100590006BF8BBF1100F0ED249F003000AF1040111
:1005A000CAF804000AF1040051F8092042F00102DF
:1005B00040F809203EE046F003010AF10402CAF8BF
:1005C00004104BF001009051019941F80BB0A8685C
:1005D0000090C4081F2C88BF01F046F8009828B38B
:1005E00005F1280000996F6900EBC408C146102985
:1005F00038BF01F039F8286820FA04F1CA0705D499
:10060000012101FA04F404432C6007E0D8F8080043
:10061000296988422CBF814601F026F8C8F8087085
:10062000C9F80C70C7F80890C7F80C80C5F808B076
:10063000019868611AF1080800F0F08100F05BBDD4
:1006400001F012F8EAE116F1400F28BF4FF0FF3633
:1006500080F0E4810B36F6086B68F600002B00F0A2
:10066000DD810027300AC6F1000908BF002423D02D
:10067000B0F5803F28BF1F241ED2A0F58071090C61
:1006800001F008018840A0F58052120C02F004022B
:100690009040A0F58044240CC1F10E0104F0020446
:1006A000891A091BA04001EBD031C81D26FA00F4BD
:1006B00004F0010404EB410405F5987858F824008F
:1006C00030B31F2C0FBFB4464FEA540CCCF1190CB9
:1006D00006FA0CFCBE46494601E04FEA4C0C426863
:1006E000D208D200921B8A4202D2110007460CD0D7
:1006F000426910304FEADC7950F82900002A1CBF0B
:10070000824296460028E8D170468946A8BBB7BB0E
:10071000012101FA04F4640060420443234000F024
:100720007D81584203405B1E180B00F01000C3404F
:10073000590901F00801CB409A0802F00402D340A5
:100740005C0804F002040818E3401018C3F3400CDE
:100750002018604423FA0CF31B1858F823000CE00F
:1007600008464168C908C900891B49453CBF8946FC
:10077000074601690029F3D140690028F1D1002F13
:1007800000F04C81A868801B814580F04781296971
:100790008F42FFF455AF7868C008C00006EB09012E
:1007A000884218BF00F060FF07EB060B5F45BFF4FF
:1007B00047AFFC68D7F818A0BC420CD0B8682969CC
:1007C000884223D3C268BA4204BFA168B9421DD18E
:1007D000C460A0601CE007F114010C6834B907F193
:1007E00010010C68A4B101E011460C6804F1140278
:1007F0001068002802BF04F1100210680028F3D12D
:100800002869814202D300220A6001E000F02CFF37
:10081000BAF1000F34D0F86908EB800001688F420C
:1008200008D10460A4B9F869696801228240914343
:10083000696025E02869824508D3DAF81010B942CA
:1008400014BFCAF81440CAF8104001E000F00CFFD1
:10085000B4B129698C4211D3C4F818A0386928B101
:10086000884226BF2061846100F0FEFE786938B1BD
:100870002969884202D36061846101E000F0F4FEDE
:10088000B9F1100F0CD2B14449F00300391D786062
:10089000381D51F8092042F0010240F80920B9E062
:1008A00046F003013A1D796049F0010090514FEA8A
:1008B000D9004BF809901F2822D805F1280101EB37
:1008C000C004296821FA00F2D307A04605D401220A
:1008D00002FA00F00843286006E0A068296988420F
:1008E0002CBF804600F0C0FEC4F808B007F1080035
:1008F000C8F80CB040F8068007F10C018C5189E073
:100900005FEA192008BF002123D0B0F5803F28BF3F
:100910001F211ED2A0F58072120C02F00802904036
:10092000A0F58051090C01F004018840A0F5804336
:100930001B0CC2F10E0203F00203521AD21A9840A5
:1009400002EBD032D01D29FA00F101F0010101EBD8
:10095000420107F11403CBF81C1000229A5107F151
:10096000100308EB81009A516A6822FA01F3DC0750
:1009700011D4012303FA01F111436960C0F800B0FA
:10098000CBF8180007F1080107F10C0040F806B099
:1009900041F806B03EE002681F291DBF4908C1F1B9
:1009A000190109FA01F1494600E002465068C00801
:1009B000C000484518D002F11003C80F03EB8003B4
:1009C000490018680028F0D12869834220D3C3F871
:1009D00000B007F10C01CBF8182041F806B007F180
:1009E000080040F806B015E0296990688A4228BFDF
:1009F00088420DD3C0F80CB007F10801C2F808B066
:100A0000885107F10C0082510022CBF8182001E038
:100A100000F02AFE17F1080840F06D83A868B04284
:100A20001DD3811B6A6910290AD390196861A960D6
:100A300041F001034360415046F0030656600BE06D
:100A40000021A9606961131D40F003015160111D6F
:100A50001C5844F001040C5002F108084BE3E8680C
:100A60008642C0F03883DFF8B89BD9F8000008B997
:100A7000FFF799FBD9F8081088192F30491E20EA92
:100A800001018E4280F0358305F5D877B86838B11A
:100A90003A6889188A4280F02C838842C0F0298302
:100AA00000F002FE00281CBFD0F8008010F1010FFA
:100AB00000F01F8339687A68414439608A4238BF40
:100AC0007960AC6904BB296909B1884200D2286108
:100AD00000213861C7F81480F9614FF0FF31D9F86F
:100AE00000206A62296205F128020021D26092602A
:100AF00002F1080454611461891C10321F29F5D9D0
:100B0000A8F1280201461DE005F5E0710A4681467C
:100B100000E09268D2B11068536803449945F8D157
:100B2000107B030712D413689C420FD3D2F804C081
:100B300063449C420AD2C444C2F804C02146E86817
:100B400008EB00022846FFF744FBC1E22869814513
:100B500038BFC5F8109009EB080000E0896800294B
:100B600000F0BD810A688242F8D1087B020700F1DB
:100B7000B6810868C1F800904A6842444A6009F1A9
:100B8000080111F0070F08BFCDF8049006D0C1F19D
:100B9000080101F0070109EB0102019200F10801CF
:100BA00011F0070F04D0C1F1080101F0070108445A
:100BB00080460198A8EB00018419A1EB060B27469B
:100BC00046F003064660474528BF00F04DFD98F803
:100BD0000400C10758BF00F047FDBBF1100F38BF3C
:100BE00000F042FDA869804508D1E9688B44C5F84A
:100BF0000CB0AF614BF0010078606CE16869804532
:100C00000AD1A9688B44C5F808B06F614BF00100A8
:100C1000786047F80BB05EE1D8F8040000F00301FB
:100C2000012940F0B880C008C000C1081F29039006
:100C300040D8D8F808200092D8F80C600291B0454E
:100C400008BF00F011FD0098804508BF00F00CFDC2
:100C5000D8F804000299C008C000B0EBC10F18BF5B
:100C600000F002FD0299009A05F1280000EBC10096
:100C7000824208D011462A699142C0F08780CA6832
:100C8000424540F0838000998E4206D102982A683E
:100C9000012383409A432A607AE0864205D029697D
:100CA0008E4273D3B068404570D10098C6600099F9
:100CB000B1606DE0D8F818000090D8F80C60464597
:100CC0000DD0D8F808002969884223D3C26842456C
:100CD00004BFB16841451DD1C660B0601CE008F199
:100CE00014010E6836B908F110010E68A6B101E0D2
:100CF00011460E6806F114021068002802BF06F1C2
:100D0000100210680028F3D12869814202D3002222
:100D10000A6001E000F0A8FC0098002838D0D8F85C
:100D20001C0005F5987101EB80000168884509D128
:100D300006609EB9D8F81C00696801228240914380
:100D4000696025E000982969884205D30169414519
:100D500014BF4661066101E000F086FCC6B1296956
:100D60008E4213D30098B061D8F8100028B18842A1
:100D700026BF3061866100F077FCD8F8140038B1E6
:100D80002969884202D37061866101E000F06CFC41
:100D9000039988448B44D8F8041049084900C8F8DE
:100DA00004104BF0010078604FEADB0647F80BB007
:100DB0001F2E22D805F1280000EBC604A146BBF186
:100DC000100F38BF00F050FC286820FA06F1CA075F
:100DD00005D4012101FA06F606432E6006E0A0685C
:100DE000296988422CBF814600F03EFCA760C9F803
:100DF0000C70C7F80890FC606DE05FEA1B2008BF2C
:100E0000002123D0B0F5803F28BF1F211ED2A0F5BE
:100E10008072120C02F008029040A0F58051090C7B
:100E200001F004018840A0F580431B0CC2F10E02C2
:100E300003F00203521AD21A984002EBD032D01DAE
:100E40002BFA00F101F0010101EB4201F9610023ED
:100E500005F598727B6102EB81003B616A6822FABA
:100E600001F3DE0707D4012303FA01F1114369609E
:100E70000760B8611DE002681F291DBF4908C1F164
:100E800019010BFA01F1594600E002465068C0080A
:100E9000C000584510D002F11003C80F03EB8003C7
:100EA000490018680028F0D12869834211D31F60D7
:100EB000BA61FF60BC600EE0296990688A4228BF71
:100EC000884206D3C7609460B860FA600020B861B9
:100ED00001E000F0C9FB019800F108080BE1214690
:100EE0002846FFF753F90168406808440090A0F1D4
:100EF000270111F0070000980EBF0021C1F1080181
:100F000001F007010844A0F12F0B04F110018B45FB
:100F100038BFA3460BF11802002102920191A8F1FB
:100F2000280249462846FFF754F90BF1080010F053
:100F3000070F18BF00F098FB1B20CBF8040005F545
:100F4000E07292E809500BF1080181E80950002194
:100F50000BF10800F961B861009A02980199C7F88D
:100F60001090C7F81480072300E0001D491C00F111
:100F7000080797424360F8D30129D8BF00F074FBFB
:100F8000A34500F0A580ABEB040B201D221D50F8FB
:100F90000B104908490042F80B104BF0010060604B
:100FA0004FEADB0944F80BB0B9F11F0F22D805F165
:100FB000280000EBC907B846BBF1100F38BF00F09E
:100FC00053FB286820FA09F1CA0705D4012101FA68
:100FD00009F10843286006E0B868296988422CBFF7
:100FE000804600F041FBBC60C8F80C40C4F80880A3
:100FF000E7606DE05FEA1B2008BF002123D0B0F559
:10100000803F28BF1F211ED2A0F58072120C02F073
:1010100008029040A0F58051090C01F004018840BD
:10102000A0F580431B0CC2F10E0203F00203521A1A
:10103000D21A984002EBD032D01D2BFA00F101F009
:10104000010101EB420105F59872002302EB8100DA
:10105000E161636123616A6822FA01F3DF0707D463
:10106000012303FA01F1114369600460A0611DE0EE
:1010700002681F291DBF4908C1F119010BFA01F1CE
:10108000594600E002465068C008C000584510D0DC
:1010900002F11003C80F03EB800349001868002811
:1010A000F0D12869834211D31C60A261E460A4607E
:1010B0000EE0296990688A4228BF884206D3C4603E
:1010C0009460A060E2600020A06101E000F0CCFA32
:1010D000E86886420DD2801BA969E8608A19AA6176
:1010E00040F00100506046F003064E6001F1080830
:1010F00001E04FF00008AFF30080404605B0BDE8C6
:10110000F08F002800D170472DE9F047A0F10805C5
:10111000AFF30080DFF84C6531698D42C0F07A8210
:10112000686800F00302012A00F07482C2084FEAE6
:10113000C209C20705EB090839D42C6810F0030F67
:1011400000F06A82604205448D42A144C0F0628290
:101150007069854200F0DA80E408202C72D2D5F85C
:101160000CA0AF68554508BF00F07EFABD4208BF2D
:1011700000F07AFA6868C008C000B0EBC40F18BF6E
:1011800000F072FA06F1280000EBC400874205D097
:1011900031698F4253D3FA68AA4250D1BA4540D13F
:1011A0003068012101FA04F420EA04043460454562
:1011B00080F03082D8F80440E00740F12B82A1078C
:1011C00000F17C81B069804540F0B380F168B56181
:1011D0008944C6F80C9049F00100686071698D423D
:1011E00002D100207061B060F169494580F014823D
:1011F000DFF82C24106808B9FEF7D5FFB169002983
:1012000000F00A82F068292824BF3046FEF7BEFFAE
:10121000F069F168884280F0FF814FF0FF30F061A3
:10122000FAE1824506D03069824508D3DAF8081021
:10123000A94204D1C7F80CA0CAF80870B7E700F0BB
:1012400013FAB4E7EC68AF69AC420BD0A8688842E7
:1012500022D3C168A94204BFA268AA421CD1C460BB
:10126000A0601BE005F11402146834B905F1100206
:1012700014689CB101E01A46146804F1140318685C
:10128000002802BF04F1100318680028F3D18A4235
:1012900002D30021116001E000F0E6F9002F86D0B2
:1012A000E96906F5987000EB81000268954209D162
:1012B0000460200011D1E8697168012282409143E5
:1012C000716074E73069874205D33969A94214BF58
:1012D0007C613C6101E000F0C7F9002C3FF467AF8E
:1012E00031698C42ABD3A761286928B1884226BFF7
:1012F0002061846100F0B8F9686900283FF457AFB5
:10130000316988429BD36061846150E798F804009A
:1013100000F0030003287FF44AAFC6F8089049F0B4
:101320000101D8F8040040084000C8F804006960D2
:101330000AE0706980450AD1B16875618944C6F8D0
:10134000089049F00100686045F8099064E1E408FC
:10135000E400A144E408202C3AD2D8F80CA0D8F834
:101360000870D04508BF00F07FF9B84508BF00F00D
:101370007BF9D8F80400C008C000B0EBC40F18BF58
:1013800000F072F906F1280000EBC400874207D094
:1013900031698F42C0F08580FA68424540F0818013
:1013A000BA4507D13068012101FA04F420EA0404A7
:1013B000346078E0824506D03069824571D3DAF82E
:1013C000081041456DD1C7F80CA0CAF808706AE052
:1013D000D8F80C40D8F8187044450DD0D8F808005B
:1013E0003169884223D3C268424504BFA1684145A0
:1013F0001DD1C460A0601CE008F114010C6834B970
:1014000008F110010C68A4B101E011460C6804F168
:1014100014021068002802BF04F1100210680028AE
:10142000F3D13069814202D300220A6001E000F06A
:101430001BF9002F37D0D8F81C1006F5987000EB78
:101440008100026890450AD10460200012D1D8F8CA
:101450001C007168012282409143716023E0306971
:10146000874205D33969414514BF7C613C6101E085
:1014700000F0FAF8BCB131698C4212D3A761D8F8F8
:10148000100028B1884226BF2061846100F0ECF88A
:10149000D8F8140038B13169884202D360618461A0
:1014A00001E000F0E1F849F00100686045F80990BA
:1014B00071698D420BD1C6F80890ADE064086400F4
:1014C000C8F8044049F00100686045F809904FEA07
:1014D000D907202F22D206F1280000EBC704A0462E
:1014E000B9F1100F38BF00F0BFF8306820FA07F1EB
:1014F000CA0705D4012101FA07F70743376006E060
:10150000A068316988422CBF804600F0ADF8A56024
:10151000C8F80C50C5F80880EC607DE05FEA19203F
:1015200008BF002123D0B0F5803F28BF1F211ED265
:10153000A0F58072120C02F008029040A0F58051D4
:10154000090C01F004018840A0F580431B0CC2F196
:101550000E0203F00203521AD21A984002EBD03264
:10156000D01D29FA00F101F0010101EB420106F55D
:101570009872002302EB8100E9616B612B61726854
:1015800022FA01F3DC0707D4012303FA01F1114326
:1015900071600560A8611DE002681F291DBF490830
:1015A000C1F1190109FA01F1494600E0024650680B
:1015B000C008C000484510D002F11003C80F03EB6B
:1015C0008003490018680028F0D13069834211D3A4
:1015D0001D60AA61ED60AD600EE0316990688A42DD
:1015E00028BF884206D3C5609560A860EA600020E5
:1015F000A86101E000F038F8306A401E30620BD17B
:10160000D6F8C80100E080680028FCD14FF0FF3018
:10161000306201E000F028F8AFF30080BDE8F08709
:10162000B00D002038B5002558B141EA0002120C77
:1016300001FB00F512041EBFB5FBF0F088424FF02D
:10164000FF352846FEF7E6FD04001CBF14F8040C25
:1016500010F0030F03D02946204600F03BF8204647
:1016600032BD000088090020012000F045B830B4E8
:10167000002513E050F8042BD30744BFA9F1010360
:101680009A18091F042942F8045BFAD213468C0702
:1016900044BF15809B1CC90748BF1D7050F8041B30
:1016A0000029E7D130BC70470749086808B100201D
:1016B00070470648C008C00008600549C908C9004D
:1016C000091A0160704700BFD80D0020E71F0020F5
:1016D000E09F0020002200F01DB8B1F5807F02D30A
:1016E0004FF0FF3070470170012070470078401EB6
:1016F0008041C043C00F704780B5AFF30080024AFD
:1017000011001820ABBEFBE72600020062F30F2297
:1017100062F31F42401810F0030308D0C91A1FD308
:10172000DB0748BF00F8012D28BF20F8022D130069
:1017300030B414461546103928BF20E93C00FAD8C9
:10174000490728BF20E90C0048BF40F8042D890054
:1017500028BF20F8022D48BF00F8012D30BC70478B
:10176000C91818BF00F8012DCB0728BF00F8012DBC
:10177000704700002DE9F14FB2B099469246002320
:101780000691CDE900333C9A0F930DF14A01149173
:101790004A7011E0329E57462C4617F8011B0698F6
:1017A000B0470028069000F026810F98401C641E68
:1017B0000F90F2D13296AA449AF80000252808D159
:1017C0000021002209910A920B910C920D910E9228
:1017D0000FE06A464FF0FF31504601F063F8050014
:1017E00002D10F9800F066BED4D50125E3E741F0A1
:1017F00001011AF8010F2028F9D023280CD02B283A
:1018000004D02D2805D0302809D00BE041F002018A
:10181000EFE741F00401ECE741F00801E9E741F0AE
:101820001001E6E72A280FD1D9F8002052F8040B5E
:10183000C9F800200028119003D54042119041F0D2
:1018400004010AF1010A14E01192DFF8EC3B0AE00E
:101850001198984205DA00EB800402EB4402303A1A
:1018600011920AF1010A9AF80020A2F130000A2828
:10187000EED39AF800002E2803D04FF0FF321092DA
:1018800029E01AF8010F2A2809D1D9F8000050F8E8
:10189000042BC9F8000010920AF1010A1BE02D2860
:1018A0000CBF0AF1010A002000221092DFF8882BF9
:1018B0000BE040B9109B934205DA03EB830504EB80
:1018C0004504303C10940AF1010A9AF80040A4F152
:1018D00030030A2BEDD3ADF848100FF660309AF8BC
:1018E000001000F0E9FF08B11AF8010B8DF84A006A
:1018F0009DF84A00682805D19AF8000068280CD1A4
:10190000622106E06C2804BF9AF800006C2804D11C
:1019100071218DF84A100AF1010A1FA808901AF8DF
:1019200001BBBBF125012DD01C3900F06181091FDD
:10193000022940F25D810E392AD0491F00F0B3849C
:10194000093900F05581891E00F04985491E00F0D3
:10195000F584491E022940F24B81091F00F0EE84F4
:10196000491F00F0BA80491E00F09D84491E65D0D1
:10197000C91E21D0891E00F09684C91E00F09384F0
:1019800000F04CBD25238DF87C30012109912AE01F
:101990006C208DF84A00D9F8000050F8042BC9F8E3
:1019A0000000002A43D11499487800283DD04FF018
:1019B000FF340FF6902012E09DF84A006C28EAD020
:1019C000D9F8000050F8044BC9F800000794D4B9C6
:1019D0001499487898B14FF0FF340FF6842000F046
:1019E00077FF201A07D132981FAA04A900F065FDDD
:1019F00000287FF5E1AE4FF0FF3000F05BBD0FF641
:101A00007C200790EFE7109D002D04D5204600F0C4
:101A10007FFF044607E02A46204600F095FF002895
:101A200014BF041B2C460A94DDE70FF654223298AB
:101A300004A900F0C8FD0028D5D5DCE7D9F80010CE
:101A400051F8040BC9F8001020F00004002121F027
:101A5000FF351FABCDE904450793DDE90423089961
:101A60003C2413B90AB9109898B102F00F0530352B
:101A7000641EEEB23A2EA8BF2735120942EA03725D
:101A80001B090D5508BF002A03D007980D19A8425D
:101A9000EBD308190790C4F13C0210980A928242D5
:101AA00009DABDF84810821A4FF6EF7001400C9227
:101AB000ADF8481097E7002895D59DF8480000F04C
:101AC000140010288FD1119B09990C985B1A1B1ACE
:101AD0009A1A002A87DD0C9285E71499487820B17C
:101AE0004FF0FF340FF69C1079E79DF84A0062280A
:101AF00062D0682819D06A2840D06C2806D0712896
:101B00004DD074282DD07A281ED064E0D9F800106A
:101B100051F8040BC9F8001020B94FF0FF340FF64C
:101B20007C105CE70F9901605DE7D9F8001051F86F
:101B3000040BC9F8001020B94FF0FF340FF65C1009
:101B40004DE70F9901804EE7D9F8001051F8040BCA
:101B5000C9F800100028E5D14FF0FF340FF63C1013
:101B60003DE7D9F8001051F8040BC9F8001000281F
:101B7000D8D14FF0FF340FF6241030E7D9F8001019
:101B800051F8040BC9F8001020B94FF0FF340FF6DC
:101B90000C1024E70F9AD317C0E9002323E7D9F8E4
:101BA000001051F8040BC9F800100028F2D14FF0D2
:101BB000FF340FF6E80012E7D9F8001051F8040BD3
:101BC000C9F8001020B94FF0FF340FF6D00006E737
:101BD0000F99017007E7D9F8001051F8040BC9F804
:101BE000001000289ED14FF0FF340FF6B000F6E64B
:101BF000D9F80020D21D22F00702C9F80020D2E94E
:101C000000010832C9F80020CDE90401C80F02D054
:101C100009982D210AE0BDF84800810702D50998EE
:101C20002B2103E0C00705D5099820211FAA1154D4
:101C3000401C0990DDE9042309991FA8CDE92E2352
:101C400008444BF020016129079015AC0BD0109986
:101C5000002902D50621109105E001BF4BF02001BB
:101C6000672901221092DDE9042359004915491C16
:101C700010D11A030ED0ABF1610503211A2D0A9180
:101C800002D20FF6A43101E00FF6A031032200F0DA
:101C900087FEA8E659004915491C0AD11A0308D144
:101CA000ABF1610503211A2D0A9116D30FF6843189
:101CB000ECE7DDE90401CDE93001DDE9302323F073
:101CC0000047B7F5801F22F000060DD20022002F3A
:101CD00008BF002E029203D116E00FF65431D5E76B
:101CE00002AA00F0B1FE0FE0DFF8EC0ADFF8EC1A10
:101CF00000EB17500290DDE930234FF0FF30194020
:101D0000DFF8DC7A10403943CDE904014BF02000C4
:101D100061280DD1079830210170821CBBF1610F41
:101D200007920CBF7821582141700998801C0990B6
:101D3000DDE9040120F0000231F0004308BF002A71
:101D400002D10026002571E14BF02008B8F1610FA7
:101D500040F0BE801098002847BF21210391401C0D
:101D60000390039FDDE92E017F1C00220023DDE9A3
:101D7000044500F0A1FE02998DF8542038BF85F08B
:101D80000045091F002F02910DF155065DDDDFF8BA
:101D9000541ACDE9302140F2FF732E932046294694
:101DA0000022002300F0A0FE4FD24800400D00F1B9
:101DB0001C0215D0002A13DD2E9B9A420ADBDDE9B6
:101DC000300121F0004205F000400243DDE930011E
:101DD000114611E06FF31E5141EA025120460BE01B
:101DE00024F0000035F0004108BF00280FBF29464D
:101DF0001C22294600F090FE04460D4600F02AFF02
:101E0000FF1F002F804609DD00F042FF02460B460F
:101E10002046294600F04EFF04460D46F01D0721DE
:101E2000B8F1000F0CDD491E5EBF08F00F0200F88C
:101E3000012D4FEA2818F3D502E0002200F8012D09
:101E4000491EFAD5C61D002FA8DC0DF15500361A23
:101E500003988642D8BF304600280DF1550430D48F
:101E6000B04206DA0DF155010A5C082AA8BF0F211D
:101E700000DA0021024615AB134400E0401E13F8BF
:101E80000159521E8D42F9D00F2904D10DF155018F
:101E90008B5C5B1C8B54002A04D50299091D15AC80
:101EA000401C0291411E0CD46218ABF13A06137823
:101EB0003033DDB23A2DA8BFF318491E02F80139BC
:101EC000F5D51099002940F1AF80421E1092ABE089
:101ED0000299DFF8142947F29750414391FBF2F23F
:101EE000DDE92E45029225F00045D2F1070204DD1E
:101EF0002046294600F04CFC0BE052420020DFF85F
:101F0000EC1800F045FC02460B462046294600F03E
:101F100043FF0446B8F1660F109806BF029F0A37C8
:101F200006273F18142FC8BF142730208DF85400FF
:101F30000D460020DFF8B818CDE92E010DF1550649
:101F4000002F33DD2046294601F04AF801460A46B3
:101F500006F1080304200A26B2FBF6F606EB860E0D
:101F6000A2EB4E02303203F8012C0A22B6FBF2F249
:101F700002EB820EA6EB4E063036401E03F8026DD1
:101F8000E9D1083F002F03F10806D9DD084601F02A
:101F90003BF802460B462046294600F08BFEDDE961
:101FA0002E2301F03FF804460D46CBE70DF1550016
:101FB000361A0DF1550404E00298401E761E029078
:101FC000641C20783028F7D0B8F1660F02D102994E
:101FD000491C04E0B8F1650F0CBF012100211098E5
:101FE00008188642B8BF701E00281DD4B04204DA1B
:101FF000215C3429C8BF392100DC30210246631E30
:102000009D1800E0401E15F80169521E8E42F9D05D
:10201000392902D1A15C491CA154002A04D5029996
:10202000491C1C46401C02910646029D00F03EFCE5
:10203000406A0778DDF8408030B2002802DC0126D3
:102040000FF2F4744BF02000662808BF6D1C16D008
:10205000672846D128B210F1040F48DB404546DA24
:102060009DF848006D1C010703D430B24045B8BF4D
:10207000804628B2B8EB000848BF4FF000080FFABE
:1020800085FB07980A99BBF1000F00F3B2804A1C48
:102090000A9230234354B8F1000F03DC9DF8480046
:1020A000010704D50A98411C0A9107990F5418EBAF
:1020B0000B0FB8BFC8F100052DB268420D90A844BF
:1020C00032B29045B8BF4646079B0A9836B20B9687
:1020D00032462146184400F063FCA8EB06000E903F
:1020E000CBE0BBF1610F17D14FF0700B19E030B2AC
:1020F000404504DA9DF848100A0758BF8046B8F1F9
:10210000010848BF4FF00008BBF1670F14BF4FF044
:10211000450B4FF0650B04E0BBF1410F08BF4FF0DA
:10212000500B0A98411C0A91B8F1000F079914F856
:10213000012B0A5403DC9DF8480001071AD50A98C0
:10214000411C0A91B8F1000F07990F5412DD761E59
:1021500030B2804507980A9BB8BF464632B2214646
:10216000184400F01DFC0A9936B271180A91A8EBC8
:1021700006000D9007980A9908442AB2002A80F8B0
:1021800000B003D42B224270811C04E02D21417049
:102190001546811C6D4200202EAA0A2409E02B4618
:1021A00093FBF4F505EB8506A3EB460302F8013B30
:1021B000401C2DB2002DF2DC012806DC4BF0200281
:1021C000652A04BF302201F8012B00282EAA08D16D
:1021D000302001F8010B06E0401E135C303301F89B
:1021E000013B0028F8DC079A0A981044091A0B9161
:1021F00043E0084431B22AB2914219DA32B22146A0
:1022000000F0CEFB0A9936B27118ABEB0606B8F1B6
:10221000000F0A910D9603DC9DF84800020704D5D3
:10222000079847540B99491C0B91CDF8388024E04E
:10223000214600F0B5FB0A98761B5844B8F1000F10
:102240000A9003DC9DF848100A0703D5411C0A9147
:1022500007990F5430B2804507980A9BB8BF46468D
:1022600032B204EB0B01184400F09AFB0A9836B224
:1022700030180A90A8EB06000D909DF8480000F079
:10228000140010287FF4AFAB099A0A990D988A18A8
:102290000B9982180E988A18821811988242BFF6FC
:1022A000A2AB821A17E49DF84A00622808D0682879
:1022B0000ED06A2814D06C281FD0712810D01CE0D2
:1022C000D9F8001051F8040BC9F80010C0B21AE098
:1022D000D9F8001051F8040BC9F8001080B212E0D0
:1022E000D9F80020D21D22F00702C9F80020D2E957
:1022F00000010832C9F8002006E0D9F8001051F8B2
:10230000040BC9F800100021CDE904019DF8480034
:1023100001075AD5DDE90423002B08BF002A54D059
:102320004BF02000782850D109981FA930220A5478
:10233000401C431C099301F800B046E09DF84A0098
:10234000622808D068280ED06A2814D06C281FD0C4
:10235000712810D01CE0D9F8001051F8040BC9F80E
:10236000001040B21AE0D9F8001051F8040BC9F877
:10237000001000B212E0D9F80020D21D22F00702AE
:10238000C9F80020D2E900010832C9F8002006E0AF
:10239000D9F8001051F8040BC9F80010C117CDE9A5
:1023A0000401002902D509982D210AE0BDF8480052
:1023B000810702D509982B2103E0C00705D50998AC
:1023C00020211FAA1154401C09901FA809990144FB
:1023D000079104A8594600F056F9FFF704BB9DF891
:1023E0004A006C280BD001210991D9F8000050F85F
:1023F000041BC9F800008DF87C10FFF7F4BAD9F877
:10240000000050F8041BC9F8000015914FF0FF328E
:1024100010920021169115AAFFF709BB2521012270
:10242000BBF1000F8DF87C1009923FF4DCAA8DF807
:102430007DB00221FFF7AABACBCCCC0C686A6C74D1
:102440007A4C00007072696E74665F733A20626144
:102450006420256C7320617267756D656E74000071
:102460007072696E74665F733A20626164202573CE
:1024700020617267756D656E7400000000000000D9
:10248000000000007072696E74665F733A20256EFA
:1024900020646973616C6C6F776564007072696E3B
:1024A00074663A2062616420256E20617267756DE2
:1024B000656E740033B0BDE8F08F2DE9FC410F4626
:1024C000064690467A6B7869396ABC6A121AB8690E
:1024D000521A796A121AF869521A121A97F83800C1
:1024E000141B41070FD42020002C8DF800000ADDBA
:1024F000254601236A463946304600F07DF900281A
:102500005DD16D1EF5D17B6942463946304600F0FB
:1025100073F9002853D130208DF800003D6A002D5A
:1025200009DD01236A463946304600F065F9002886
:1025300045D16D1EF5D1BB69FA683946304600F0C9
:102540005BF900283BD130208DF800007D6A002D1A
:1025500008DD01236A463946304600F04DF970BB6C
:102560006D1EF6D1F868B969FB69421839463046E4
:1025700000F042F918BB30208DF80000BD6A002D34
:1025800008DD01236A463946304600F035F9B0B916
:102590006D1EF6D197F8380041070DD52020002C8C
:1025A0008DF8000008DD01236A463946304600F008
:1025B00023F920B9641EF6D10020BDE8F6814FF062
:1025C000FF30BDE8F6812DE9F8470D46A3B02F6B2B
:1025D000002F8246904648BF6FF0004700F0F3FDA1
:1025E000696B401801AA0021C2E90011812828BFA7
:1025F0004FF0FF3044D289461EE0A74230DB6869C5
:10260000201881280BD30021696303AA294650466C
:10261000FFF753FF5FEA000922D40020686103AB93
:102620006E6922466946981900F0BAF9A6196E61DA
:1026300058F8040BA0B13F1B002F11DDD8F8001093
:1026400001AA684600F030F90446002C05D4D8F8F9
:1026500000000028D1D1641ECFD54FF0FF390EE025
:10266000B9F1000F504604D103AA2946FFF725FF10
:102670008146B9F1000F02D10020686168634846C5
:1026800024B0BDE8F0872DE9FC4307466F293E6979
:1026900008BF082405D041F02000782814BF0A2480
:1026A00010243C25D7E90023642918BF69299046E6
:1026B000994605D1002B03D5D8F1000869EB4909EB
:1026C000B9F1000F08BFB8F1000F0CD1386B50B949
:1026D000082C39D197F83800010735D530203B2533
:1026E00086F83B0030E08DF800104046494622460F
:1026F000E31700F06DFD3032D0B26D1E3A2801951F
:1027000004DB9DF80000A0F151018A187255404683
:1027100049462246E31700F05BFD80465FEA010967
:1027200008BFB8F1000F03D0F86871198842DCD3F4
:10273000082C09D197F83800010705D5705D3028BD
:1027400002D06D1E30207055C5F13C02BA6171197E
:10275000F960386B824208DA821A3A624FF6EF70FB
:10276000398F01403987BDE8F38300280ED597F8EB
:10277000380000F01400102808D17B6B7969386AA2
:102780005B1A1B1A9A1A002AC8BF3A62BDE8F38383
:102790002DE9D04306460F4614464FF00008DFF8F7
:1027A000549012E0E00707D542464B463046394682
:1027B00000F038FC06460F464046494642464B4626
:1027C00000F030FC641080468946002CEAD1304687
:1027D0003946BDE8D083000002FCFFFFFFFF0F80F9
:1027E0000000E03F0000F07FA08601000000F03F05
:1027F00084D7974100002440F8B505460E46174699
:102800001C4600205CB117F8011BB068A847B060F7
:1028100030B1F06A401CF0620020641EF3D1F2BDBA
:102820004FF0FF30F2BD00006E616E004E414E0071
:10283000696E6600494E4600300001001C48704732
:1028400070B45368D41801E05B1C491E042B08DAED
:1028500000291FBF057804F8015B10F8016B002EFA
:10286000F2D1536070BC704738B514461D4661B153
:10287000FFF7E6FF61686A6B204690476FF0010240
:10288000811A02D0491E01D001E003E005E00021D9
:10289000616032BD6FF0010032BD4FF0FF3032BDDC
:1028A000DA6B1047024BDFE7014BF9E7014870474D
:1028B0004800002010000020C9B202788A421AB1F4
:1028C0001CBF10F8012FF9E718BF00207047030064
:1028D00080B500B906A005490B681BB12222002172
:1028E000984701E0FEF7C0FE222002BDDC0D00206B
:1028F000636F6E73747261696E742068616E646C6C
:1029000065723A20626164206D657373616765006A
:1029100000F10103810704D010F8011B820781B187
:10292000FAD10268A2F10131914311F0803104BF64
:1029300050F8042FF6E709BAB1FA81F100EBD100A3
:10294000401CC01A70470100C9B2830706D0521E4E
:1029500022D310F8013B9942F7D11FE0083A13D374
:1029600002F1040241EA012141EA014150F8043B2D
:10297000121F21BF4B40A3F1013C2CEA030C1CF0B9
:10298000803FF3D0C9B2001F083210F8013B521E3D
:1029900028BF91EA030FF8D818BF0120401E7047E6
:1029A00062B38B0708D0521E11F8013B00F8013BBF
:1029B00000F024808B07F6D1830740F0208000BF11
:1029C000103A07D330B4B1E83810103AA0E8381004
:1029D000F9D230BC530724BFB1E80810A0E80810B2
:1029E00044BF51F8043B40F8043BD20724BF31F800
:1029F000022B20F8022B44BF0B7803707047121F84
:102A000017D35B0009D151F8043B20F8023B1B0CA3
:102A1000121F20F8023BF6D20BE051F8043B00F8FD
:102A2000013B1B0A20F8023B1B0C121F00F8013B64
:102A3000F3D238BF121D521E24BF11F8013B00F81B
:102A4000013BF8D87047000010B5144600F002F8BA
:102A5000226010BDC1F30A5343B14A0012F5001FB2
:102A600028D2A3F2FE32A1EB0251704750EA410C8A
:102A700020D001F0004C31EA0C01B1FA81F204BF20
:102A8000B0FA80F3D2180B3AB2F120032CBF00FA4F
:102A900003F1914041EA0C013EBFC2F1200C20FA43
:102AA0000CF319439040524240F2FD33D21A01EB2D
:102AB00003517047002270474FF4001C1CEB410F7C
:102AC00094BF1CEB430F09E041EA030C50EA4C0CA5
:102AD00052EA0C0C03D2994208BF9042704714BFCF
:102AE0008B428242704701004FF4001C1CEB410FE7
:102AF00094BF1CEB430F09E041EA030C50EA4C0C75
:102B000052EA0C0C03D28B4208BF8242704714BFBA
:102B10009942904270470400124254D440F2FF7C24
:102B20001CEA11530FD0634531D09B1863453CBF5D
:102B300001EB0251704701F0004141EA0C510020C5
:102B4000AFF30080704750EA410320D001F0004C01
:102B500091EA0C011CD0B1FA81F30B3B9A420DD9DA
:102B6000D21A994051EA0C01C3F1200C20FA0CFC56
:102B700061449840531C40F2FF7CD7E7914041EA02
:102B80000C01C2F1200C20FA0CF31943904070475D
:102B9000B0FA80F31533202BE0D3202AEED3203A6D
:102BA000203B9A4209D9D21A00FA03F141EA0C01FA
:102BB0000020531C40F2FF7CB8E700FA02F141EA22
:102BC0000C0100207047524240F2FF7C1CEA115376
:102BD0000DD06345DBD0B2EB030C3CBFA1EB02513F
:102BE00070470CF1010221EA035141F4801150EACF
:102BF000410CCCD001F0004C352A27DC30B481EAFE
:102C00000C01B2F1200309DAC2F12003044601FAF3
:102C100003F5D0402843D1409C400CE0C3F1200292
:102C2000450020FA03F418BF44F0010421FA03F030
:102C300091400C43002174F1004550F1000051EB2C
:102C40000C01244230BC7FF47BAF7047614600200A
:102C500076E70000C1F30A5340F2FE329B1A14DDFE
:102C6000D3F120034FEAE17208DDC90241EA505175
:102C700041F00040D84080185040704703F2E130E6
:102C800010B1D24382F0004070470020704700002E
:102C9000C11768B14840401AB0FA80F29040D21C87
:102CA000C907C2F5846241EA025202EBD021400515
:102CB00070472E0070B44FF0004591EA030F40F1C9
:102CC0009F836B40841A71EB030603D2001BB14152
:102CD000121973414FF4001C1CEB410F34BF7CEB05
:102CE000430442E00C0DA4EB1356352E4FDC45EAAD
:102CF000C323DB0A45EAC121C912B6F120050DDD67
:102D000063FA05F6EB4086EA0305124218BF45F068
:102D10000105C01851F100010CD213E062FA06F56A
:102D2000F2405540F3415A40B340F3405A408018B6
:102D3000594107D349085FEA30005FEA350528BFEB
:102D400045F0010501F58011420875F1004250F18E
:102D5000000041EB04514E0016F5001F70BC38BF57
:102D600070470020090D090570471CEB410F10D278
:102D700052EA43060BD0BCEB410F05D80C0DAB4318
:102D8000661E342EB6DD02E0AB438018594170BC9C
:102D9000704770BC70474300F0B540F2FF7581EAA0
:102DA000030C0CF0004C15EA11541DBF15EA135723
:102DB000AC42AF42E5E0BC41C1F31301C3F31303DE
:102DC000801A994143F4801304D2641E40004941A3
:102DD00080185941C90241EA5051B1FBF3F603FB97
:102DE0001611A2FB0675D7EBC020A94102D2761EB0
:102DF00080185941C90241EA5051B1FBF3FE03FB6F
:102E00001E11A2FB0E75D7EBC020A94103D2AEF173
:102E1000010E80185941890241EA9051760546EA2F
:102E20008E2EB1FBF3F603FB1611A2FB0675D7EB52
:102E30008020A94102D2761E80185941C90241EA78
:102E400050514EEA060EB1FBF3F603FB1611A2FB3E
:102E50000675D7EBC020A94102D2761E80185941D1
:102E6000C90241EA5051B1FBF3F703FB1711A2FB72
:102E70000735D3EBC020A94167F100070CBF004222
:102E800047F0010766F3D5274FEA1E31B80814F55D
:102E9000806412DDBD0775F1004250EB0E5051EB1E
:102EA000045111F5801F5CBF41EA0C01F0BD4CF0EC
:102EB0007F6141F0E0410020F0BDBD076D0840EAB0
:102EC0000E5041F48011D4F10104B4F120060ADA65
:102ED000C4F120060200E04001FA06F3E140184385
:102EE000B24015430EE0342C13DCC6F1200445EA51
:102EF00040056D0820FA06F2154321FA06F0A140BC
:102F00000D43002175F1004250F1000051EB0C011E
:102F1000F0BD00205FEA0C01F0BDCFB992185B4113
:102F2000B3FA83F704BFB2FA82F6BF190B3FB7F1C9
:102F300020062FBF02FA06F3BB40C7F1200622FA93
:102F400006F638BF3343BA401CB1E419641E33E7B8
:102F50007F4231F00041B1FA81F404BFB0FA80F64B
:102F6000A4190B3CB4F120062FBF00FA06F1A140D2
:102F7000C4F1200620FA06F638BF3143A0403C1BBE
:102F80001AE7AC421ABF05EA1357AF4212E050EA03
:102F900041061CBF52EA4306BFE750EA41073046EC
:102FA00061461CBF41EA0551F0BD52EA430C08BF1F
:102FB000C143F0BD00204FF4001616EB410F98BF3F
:102FC00016EB430F08BF16EB410F24BFC14305E0CA
:102FD00016EB430F0CBF61464CEA0551F0BDA5014D
:102FE000400D491840EA81200CD2490DA1F58061BD
:102FF000491C40F0004005DBD1F11F0154BFC8401F
:10300000C017704700207047014648B1B0FA80F100
:103010008840C91CC1F58461090501EBD021400538
:1030200070470000B0B581EA030C0CF0004C40F290
:10303000FF7515EA11541DBF15EA1357AC42AF4294
:1030400039E0E41923EA455343F48013C90241F0FF
:10305000004141EA505EC7021100A7FB02020028AE
:103060004FF00000EEFB01204FF00001E3FB0721D1
:1030700018BF42F00102401800214941E3FB0E0154
:10308000A4F580640F0302D252004041494154F13B
:1030900001046CDD470872F1004250F1000051EB71
:1030A0000451A1F580115CBF41EA0C01B0BD4CEAAE
:1030B00005510020B0BD05EA1357AC4214BFAF4222
:1030C00041E050EA410E1CBF52EA430E02E0614665
:1030D0000020B0BD24423C441BD15FEA070EF6D06D
:1030E000090302BF01460020AEF1140EB1FA81F7C8
:1030F000AEEB070401FA07FE0C37C7F1200100FA16
:1031000007F7C8404EEA000E23EA455343F4801304
:10311000A2E733F00043B3FA83F704BFB2FA82FEAA
:1031200077440B3FE41BB7F1200E2FBF02FA0EF3DA
:10313000BB40C7F1200E22FA0EFE38BF43EA0E0351
:10314000BA40641C82E750EA410E14BF52EA430EB3
:103150006FF000014FF4001717EB430F8ABF1946B9
:1031600017EB410FB5E74CEA05510020B0BDD4F193
:103170000104B4F120070FDAC4F12007520828BF78
:1031800042F0010210FA07F501FA07F7E1BF2A43FE
:10319000E0403843E1400FE0352C98DCC7F12004D3
:1031A00052EA400220FA07F218BF42F0010231FA57
:1031B00007F0A1400A43002172F1004250F10000E3
:1031C00051EB0C01B0BD80B5FFF738FB006C02BDC0
:1031D000BBBBE1B1B2F5803F80F07E80022A1ED9F0
:1031E0008C46B1FBF2F102FB11C31B0443EA10430E
:1031F000B3FBF2FC02FB1C3380B240EA0343B3FB97
:10320000F2F002FB103240EA0C4000237047022A21
:1032100005D98446B0FBF2F002FB10C270474AB1F8
:1032200005D100F0010249085FEA30007047002232
:103230000023704700F09AB90B0002000021002023
:103240007047904271EB030CF6D3B3F5803F2FD259
:10325000F0B5B3FA83F7B1FA81F4A7F10F0E3D1B75
:103260005340CEF1200602FA0EF2F3415340B5F17D
:103270000F0746D80F3C2C444140C4F12006A04023
:10328000F1414140B1FBF3F603FB1611A2FB0645E9
:10329000001BA94102D2761E8018594180EA010222
:1032A00021FA0EF362FA0EF200215A403046F0BDC8
:1032B00030B4B1FBF3FC03FB1C11A2FB0C45001B5B
:1032C000A94103D2ACF1010C8018594130BC02462F
:1032D0000B46604600217047B2F1807F65D3F0B5A0
:1032E000B2FA82F7B1FA81F4C7F10F063D1B22FA58
:1032F00006F307F1110EF24120355A40B5F10F07E0
:10330000B8D94140C4F12006A040F1414140B1FB91
:10331000F3FC03FB1C11A2FB0C45001BA94103D2CB
:10332000BCF1010C801859410F2F12D30F3FC90374
:1033300041EA5041B1FBF3F603FB1611A2FB06452F
:10334000D4EBC030A94102D2761E8018594146EA1A
:10335000CC3C07B34140C7F12006B840F1414140A1
:10336000B1FBF3F603FB1611A2FB0645001BA941B6
:1033700002D2761E8018594180EA010221FA0EF32A
:10338000C7F1200462FA0EF20CFA07F05A402CFA48
:1033900004F13043F0BD80EA010221FA0EF300216E
:1033A00062FA0EF260465A40F0BD8C46B1FBF2F173
:1033B00002FB11C31B0243EA1063B3FBF2FC02FBE6
:1033C0001C331B024CEA002043EA1063B3FBF2FCFF
:1033D00002FB1C331B024CEA002043EA1063B3FBE0
:1033E000F2FC02FB1C331B024CEA002043EA106390
:1033F000B3FBF2FC02FB1C324CEA002000237047B6
:10340000841A71EB030604D26E40001BB1411219FD
:1034100073414FF4001C1CEB410F34BF7CEB43069F
:1034200083E00C0DA4EB1356362E00F37C80012EA6
:1034300045EAC32341DC43EA525312BFD20292024F
:103440005B08240545EAC12141EA5051D2EBC02076
:10345000994125D407D1B0FA80F610FA06F162D06E
:103460000020203608E0B1FA81F6B140C6F1200212
:1034700020FA02F21143B0404FEAF474B4EB465420
:1034800034F001064FEA74040AD8D6F50016760D1A
:1034900004F00044F04061FA06F25040F140484028
:1034A000C00A40EA415021F0004128BF5FEA5005C0
:1034B00050F1000044EBD12135E0DB0A45EAC1219F
:1034C000C90AB6F120050EDD42EA0242120CC5F12E
:1034D000200603FA06F6EB4042EA06056D429841E3
:1034E00061F100010DE062FA06F5F240554063FA21
:1034F00006FC82EA0C02F3405A406D42904161EBB7
:10350000030111F4801F05D1641E620502D06D0015
:103510004041494121F48011430875F1004350F1C5
:10352000000041EB045170BC70471CEB410F15D2F9
:1035300023F0004352EA43060BD04FEA4C0CBCEB9D
:10354000410F04D80C0D661E342EB7DDEBE7801A50
:10355000994150EA410608BF0021E4E708BF1CEB8F
:10356000430F28BF6FF00001DDE700007047000047
:1035700003000868002802D15FF0FF3008E01868F7
:1035800002701868401C18600868401E086000201F
:10359000704710B403000868022802D25FF0FF30C1
:1035A0000DE0100080B2000A1C682070186842709C
:1035B0001868801C18600868801E0860002010BC15
:1035C000704710B403000868042802D25FF0FF308F
:1035D00014E01000000E1C6820701000000C1C6825
:1035E00060701000000A1C68A0701868C27018682B
:1035F000001D18600868001F0860002010BC70479C
:103600002DE9F04704000D0016001F002868B8429D
:1036100002D25FF0FF300FE0B846B146D4F800A008
:10362000424649465046FFF7BBF9206838442060BF
:103630002868C01B28600020BDE8F08703000868E8
:10364000002802D15FF0FF3009E0186800781070A0
:103650001868401C18600868401E08600020704709
:1036600010B403000868022802D25FF0FF3013E0B4
:103670000020108010881C68247850EA04201080F4
:10368000148818684078044314801868801C1860F7
:103690000868801E0860002010BC704710B403004A
:1036A0000868042802D25FF0FF301FE0002010609D
:1036B00010681C68247850EA0460106010681C6868
:1036C000647850EA0440106010681C68A47850EADE
:1036D0000420106014681868C078044314601868E7
:1036E000001D18600868001F0860002010BC7047AB
:1036F0002DE9F04704000D0016001F002868B842AD
:1037000002D25FF0FF300FE0B846D4F80090B24626
:10371000424649465046FFF743F920683844206046
:103720002868C01B28600020BDE8F08738B5040079
:1037300025002869002802D0286900F005FE28002D
:1037400000F002FE31BD38B504002500E86800280D
:1037500002D0E86800F0F8FD280000F0F5FD31BD6A
:1037600010B504006068012802D06068022803D107
:103770002000FFF7DBFF02E02000FFF7E4FF10BDB1
:1037800001000878DFF894281278904201D10122D4
:1037900000E00022012A02D05FF0FF302AE04878E2
:1037A000DFF87C281278904201D1012200E000224B
:1037B000012A02D05FF0FF301CE0C868DFF86428FF
:1037C0001268904201D1012200E00022012A02D0B9
:1037D0005FF0FF300EE0C88ADFF8842A128890423A
:1037E00001D1012200E00022012A02D05FF0FF3067
:1037F00000E00020704710F00701002901D0D1F14E
:103800000801DFF8602A12688018081870472DE94F
:10381000FE4F05000E001700D7F80880D7F80C906F
:10382000D7F810A0DFF83C0A0468B8EB0404B4EB46
:10383000090408210022EB465846FDF767FF4A4677
:1038400031002800FFF7BDFE002801D1012100E072
:103850000021012902D05FF0FF3022E04B465246A2
:1038600031002800FFF7CCFE002801D1012100E043
:103870000021012902D05FF0FF3012E0002C0FD0B0
:1038800023006A4631002800FFF7BAFE002801D164
:10389000012100E00021012902D05FF0FF3000E0AB
:1038A0000020BDE8FE8F2DE9F04104000D00160058
:1038B0001F00DDF818800020C8F8000000203060EC
:1038C00000203860320029002000FFF7E7FE0028C2
:1038D00001D1012100E00021012902D05FF0FF3079
:1038E0002AE0D8F80000001DC8F800003068FCF796
:1038F00091FC38603868002801D0012100E00021E7
:10390000012902D07FF0060016E033683A682900EA
:103910002000FFF7EDFE002801D1012100E0002189
:10392000012902D05FF0FF3006E0D8F800103068BF
:103930004118C8F800100020BDE8F0812DE9F843D7
:1039400004000D001600B768D6F80C80B9464B4647
:10395000424629002000FFF753FE002801D1012133
:1039600000E00021012902D05FF0FF3000E00020DC
:10397000BDE8F2832DE9F04104000D0016001F00A0
:10398000DDF818800020C8F8000000203860300002
:10399000FCF740FC38603868002801D0012100E0C5
:1039A0000021012902D07FF0060015E033003A68BB
:1039B00029002000FFF79CFE002801D1012100E032
:1039C0000021012902D05FF0FF3005E0D8F80000A7
:1039D0003018C8F800000020BDE8F081C269002A54
:1039E00004D01368002B01D01268F8E7002A01D038
:1039F000116000E0C16100230B6070472DE9F041C8
:103A000005000E001700FC69002C36D062683100FA
:103A10002800FFF7D6FD002801D1012100E0002198
:103A2000012902D05FF0FF3028E0A26831002800B1
:103A3000FFF7C7FD002801D1012100E00021012985
:103A400002D05FF0FF3019E06068012802D06068A2
:103A5000022808D1A046424631002800FFF7D7FED1
:103A6000002808D00AE0A046424631002800FFF7AF
:103A700065FF002802D12468C6E70020BDE8F08178
:103A8000F0B587B004000D0016002868002800F08B
:103A9000808003AA29002000FFF700FE002801D142
:103AA000012100E00021012902D05FF0FF3071E028
:103AB00001AA29002000FFF7F1FD002801D1012112
:103AC00000E00021012902D05FF0FF3062E003989E
:103AD000012802D00398022824D102A8009005AB47
:103AE00006AA29002000FFF7DEFE002852D1059823
:103AF0000090069B019A0399300000F0D1F800284D
:103B000048D101980299884201D3012100E00021A7
:103B1000012902D05FF0FF303CE001990298091AB8
:103B2000019121E0019F02A8009004AB3A00290016
:103B30002000FFF71FFF00282CD1049B3A00002132
:103B4000300000F0F1F8002824D102980199884251
:103B500001D1012100E00021012902D05FF0FF30F6
:103B600018E00198C71B019728680199884201D382
:103B7000012100E00021012902D05FF0FF3009E0BF
:103B8000206801990844206029680198091A296071
:103B90007BE7002007B0F0BDF8B505000026EC6912
:103BA000002C0CD06068012802D06068022804D183
:103BB0002700F868FFF71FFEA0602468F0E7E869B7
:103BC000002807D0DFF8F0160A6881688A1896196D
:103BD0000068F5E7AE60F1BD10B50400002C01D01F
:103BE000012100E00021012902D07FF007002DE033
:103BF0000020206020210120FDF714FD0100002994
:103C000001D0012200E00022012A02D07FF006004C
:103C10001CE0DFF8080400780871DFF8040400787D
:103C20004871012088710020C87100208860DFF889
:103C3000F40300680861DFF8280600884883002044
:103C4000C861DFF8780608602160002010BD70B5FB
:103C50000500002D01D0012100E00021012902D042
:103C60005FF0FF301BE02868DFF85016884201D172
:103C7000012100E00021012902D05FF0FF300EE0B9
:103C8000EC69002C05D026682000FFF769FD3400A0
:103C9000F7E700202860280000F056FB002070BDE8
:103CA0002DE9F84304000F0090469946089D002C2A
:103CB00001D0012100E00021012902D05FF0FF3096
:103CC00030E02068DFF8F415884201D1012100E0DE
:103CD0000021012902D05FF0FF3023E0002D01D048
:103CE000012100E00021012902D07FF0070019E046
:103CF00014210120FDF796FC0600002E01D00121C1
:103D000000E00021012902D07FF006000AE0776080
:103D1000C6F80880C6F80C90356131002000FFF726
:103D20005DFE0020BDE8F2832DE9F04104000F00A4
:103D300090461D00002C01D0012100E00021012946
:103D400002D05FF0FF302EE02068DFF87015884267
:103D500001D1012100E00021012902D05FF0FF30F4
:103D600021E0002D01D0012100E00021012902D035
:103D70007FF0070017E010210120FDF753FC06003B
:103D8000002E01D0012100E00021012902D07FF0A6
:103D9000060008E07760C6F80880F5603100200072
:103DA000FFF71CFE0020BDE8F08173B5040015008C
:103DB00000950026002C01D0012100E000210129FE
:103DC00002D05FF0FF3028E12068DFF8F01488426D
:103DD00001D1012100E00021012902D05FF0FF3074
:103DE0001BE10198002801D0012100E000210129F8
:103DF00002D07FF0070010E1221D694601A8FFF7FD
:103E00001DFC002801D1012100E00021012902D080
:103E10007FF0090001E1621D694601A8FFF70EFC71
:103E2000002801D1012100E00021012902D07FF00A
:103E30000900F2E0A21D694601A8FFF7FFFB002878
:103E400001D1012100E00021012902D07FF0090009
:103E5000E3E0E21D694601A8FFF7F0FB002801D16D
:103E6000012100E00021012902D07FF00900D4E007
:103E700014F10802694601A8FFF710FC002801D1DF
:103E8000012100E00021012902D07FF00900C4E0F7
:103E900014F10C02694601A8FFF7D0FB002801D1FC
:103EA000012100E00021012902D07FF00900B4E0E7
:103EB00014F10D02694601A8FFF7C0FB002801D1EB
:103EC000012100E00021012902D07FF00900A4E0D7
:103ED00014F10E02694601A8FFF7B0FB002801D1DA
:103EE000012100E00021012902D07FF0090094E0C7
:103EF00014F10F02694601A8FFF7A0FB002801D1C9
:103F0000012100E00021012902D07FF0090084E0B6
:103F100014F11002694601A8FFF7C0FB002801D187
:103F2000012100E00021012902D07FF0090074E0A6
:103F300014F11402694601A8FFF792FB002801D191
:103F4000012100E00021012902D07FF0090064E096
:103F500014F11602694601A8FFF782FB002801D17F
:103F6000012100E00021012902D07FF0090054E086
:103F700014F11802694601A8FFF772FB002801D16D
:103F8000012100E00021012902D07FF0090044E076
:103F900014F11A02694601A8FFF762FB002801D15B
:103FA000012100E00021012902D07FF0090034E066
:103FB000201DFFF7E5FB002801D1012100E00021D1
:103FC000012902D07FF0090027E02200694601A8FC
:103FD000FFF756FD002820D10098002801D10121CB
:103FE00000E00021012902D07FF0090015E0E1691D
:103FF000002906D0B04802688868821896190968B6
:10400000F6E7A068B04201D1012200E00022012AB7
:1040100002D07FF0090000E0002076BDDE2F00080E
:10402000DF2F0008182A010832B582B004001500FD
:104030000095002C01D0012100E00021012902D0CF
:104040005FF0FF300BE120689C49884201D10121DB
:1040500000E00021012902D05FF0FF30FFE002986C
:10406000002801D0012100E00021012902D07FF0C9
:104070000700F4E001A9200000F0F6F8002840F065
:10408000EE800198854201D1012100E00021012943
:1040900002D05FF0FF30E2E02000FFF77DFD201D41
:1040A000FFF76EFB002840F0DA802279694602A80B
:1040B000FFF75EFA002801D1012100E0002101296B
:1040C00002D05FF0FF30CAE06279694602A8FFF7CC
:1040D0004FFA002801D1012100E00021012902D07E
:1040E0005FF0FF30BBE0A279694602A8FFF740FA13
:1040F000002801D1012100E00021012902D05FF058
:10410000FF30ACE0E279694602A8FFF731FA0028F7
:1041100001D1012100E00021012902D05FF0FF3030
:104120009DE0A268694602A8FFF74BFA002801D17A
:10413000012100E00021012902D05FF0FF308EE074
:10414000227B694602A8FFF713FA002801D101215A
:1041500000E00021012902D05FF0FF307FE0627BA8
:10416000694602A8FFF704FA002801D1012100E006
:104170000021012902D05FF0FF3070E0A27B694688
:1041800002A8FFF7F5F9002801D1012100E0002184
:10419000012902D05FF0FF3061E0E27B694602A8AE
:1041A000FFF7E6F9002801D1012100E000210129F3
:1041B00002D05FF0FF3052E02269694602A8FFF7A3
:1041C00000FA002801D1012100E00021012902D0DC
:1041D0005FF0FF3043E0A28A694602A8FFF7D9F9F1
:1041E000002801D1012100E00021012902D05FF067
:1041F000FF3034E0E28A694602A8FFF7CAF90028D6
:1042000001D1012100E00021012902D05FF0FF303F
:1042100025E0228B694602A8FFF7BBF9002801D1EF
:10422000012100E00021012902D05FF0FF3016E0FB
:10423000628B694602A8FFF7ACF9002801D1012181
:1042400000E00021012902D05FF0FF3007E02200EA
:10425000694602A8FFF7D2FB002800D100203EBD2E
:1042600072170008202A010830B40300002B01D087
:10427000012200E00022012A02D05FF0FF3019E0A5
:10428000002901D0012200E00022012A02D07FF0A3
:1042900007000FE00A4800680860DA69002A08D0C1
:1042A0000C6805480568906845192C190C6012685F
:1042B000F4E7002030BC70471C2A01081DA174B12E
:1042C000142A010838B505000C00002D01D0012189
:1042D00000E00021012902D05FF0FF300EE0002C49
:1042E00001D0012100E00021012902D07FF0070068
:1042F00004E022000121280000F001F832BD10B4D2
:104300000400002C01D0012300E00023012B02D087
:104310005FF0FF3016E0002A01D0012300E0002307
:10432000012B02D07FF007000CE0E369002B07D0DF
:104330005868884202D11360002003E01B68F5E74B
:104340005FF0FF3010BC7047FCF7DBBE00100000D0
:1043500000000000000000000000000000028001DA
:104360002000000003FC033377F800000000240164
:10437000A2003200272000000A71100000004E0247
:104380002000000000004B3599A0000000028002D0
:10439000A000000003FC033377F800000002A20332
:1043A00020000011400000038000280000002203CC
:1043B000A00000014000000380002C000005000464
:1043C0002000000003FC133377F80000000C820487
:1043D000A00000014000000000002C0000002005AB
:1043E0002033C3C3C3FF333377F80000000A02054C
:1043F000A00244E14000000000002C3400028006CE
:104400002833C3C3C3FF333377F80000000A0E0616
:10441000A0003FFCCCC84B3599A0007F00140207D8
:10442000200244C14000000000002C34000024079A
:10443000A2003200272000020A7110000001460885
:1044400020059C7F01103A0F0058012B0007E60859
:10445000A0059C7F01103A0F0058792B00270E0908
:10446000300020010C1A4B2F3330225F0000A609C8
:10447000B0059C7F01103A0F0258792B01FCC60C45
:10448000B0059C7F01103A0F0058792B00000E0CEC
:10449000A0003FF800004BBF3330007F00000E0B40
:1044A00020003FFEF3E64BBF3330225F0000060BD7
:1044B000A0059C7F01103A0F0258792B0000060CD2
:1044C00020059C7F01103A0F0058792B00000E0C3C
:1044D000A000200800004B2F3330007F00002A0D81
:1044E0002000000000000000008C400000002C0DA7
:1044F000A0000000000000000000000000002A0DE5
:1045000020000000000000000000601C000A0E0EE9
:10451000A0003FF800004BBF3330007F0000200FA9
:10452000200000000000133377F800000003A20F02
:10453000A00244C14000000380002C3400488210D7
:10454000200244C14000000000002C340000801014
:10455000A0000000000003317000000000002011E6
:1045600020000000000003337000000000002A005B
:1045700020000000000000000000100000002A00E1
:10458000A0000000000000000000002400002A112C
:10459000A0000000000000000000102500002A22FA
:1045A000A0000000000000000000002600002A33E8
:1045B000A0000000000000000000002700002A000A
:1045C00020000000000000000000100000002A1180
:1045D000A0000000000000000000002900002A00E8
:1045E000200000000000000000001000F1376C15F2
:1045F000A0000000000000000000000000002A00F1
:10460000200000000000000000001000F136EC1651
:10461000A0000000000000000000000000002A17B9
:1046200020000000000000000000100000002C1717
:10463000A0000000000000000000000000002C1896
:1046400020000000000000000000000000002C1806
:10465000A0000000000000000000000000002C1975
:1046600020000000000000000000000000002C19E5
:10467000A0000000000000000000000000002C1A54
:1046800020000000000000000000000000002C1AC4
:10469000A0000000000000000000000000002C1B33
:1046A00020000000000000000000000000002C1BA3
:1046B000A0000000000000000000000000002C1C12
:1046C00020000000000000000000000000002C1C82
:1046D000A0000000000000000000000000002C1DF1
:1046E00020000000000000000000000000002C1D61
:1046F000A0000000000000000000000000002C1ED0
:1047000020000000000000000000000000002C1E3F
:10471000A0000000000000000000000000002C1FAE
:1047200020000000000000000000000000002C1F1E
:10473000A0000000000000000000000000002C208D
:1047400020000000000000000000000000002C20FD
:10475000A0000000000000000000000000002C216C
:1047600020000000000000000000000000002C21DC
:10477000A0000000000000000000000000002C224B
:1047800020000000000000000000000000002C22BB
:10479000A0000000000000000000000000002C232A
:1047A00020000000000000000000000000002C239A
:1047B000A0000000000000000000000000002C2409
:1047C00020000000000000000000000000002C2479
:1047D000A0000000000000000000000000002C25E8
:1047E00020000000000000000000000000002C2558
:1047F000A0000000000000000000000000002C26C7
:1048000020000000000000000000000000002C2636
:10481000A0000000000000000000000000002C27A5
:1048200020000000000000000000000000002C2715
:10483000A0000000000000000000000000002C2884
:1048400020000000000000000000000000002C28F4
:10485000A0000000000000000000000000002C2963
:1048600020000000000000000000000000002C29D3
:10487000A0000000000000000000000000002C2A42
:1048800020000000000000000000000000002C2AB2
:10489000A0000000000000000000000009C40C009F
:1048A0002000000000000000000000000001082BB4
:1048B000A00000000000F800000007830096002C14
:1048C0002000000000000333700000000000462CB0
:1048D000A0041C7F00000000000001030000262D42
:1048E00020041C7F000000000800010300002A11C2
:1048F000A0000000000000000000005B00002C2E63
:1049000060000000000000000000000000002A1607
:104910002000000000000000000000580002822F6C
:104920002244B6414000000000002C100032002F4D
:10493000A333C3C3C3FF333377F80000000048300C
:10494000240000000000F800003E63A3000088304F
:10495000A00000000000F800003E63830000483122
:104960002C0000000000F800003E639300014C3171
:10497000A00000000000000000000000000048321D
:104980002C0000000000F800003E63A30001083284
:10499000A00000000004F800003E63A300002833DC
:1049A000200000000000F800003E63A300002A0081
:1049B0002000000000000000000010000032003560
:1049C000AB33C3C3C3FF333377F800000032003585
:1049D000A333C3C3C3FF333377F80000003200357D
:1049E000AB33C3C3C3FF333377F800000032003565
:1049F000A333C3C3C3FF333377F800000000483646
:104A00002C0000000000F800003E63C300002A00F4
:104A100020000000000000000000100000004837E7
:104A2000240000000000F800003E63930000883777
:104A3000A00000000000F800003E6383000048383A
:104A4000240000000000F800003E63A30000883846
:104A5000A00000000000F800003E638300002A0070
:104A60002000000000000000000010000032023BA7
:104A7000A244B6414000000000002C300032023B4E
:104A8000A244B6414000000000002C200032023B4E
:104A9000A244B6414000000000002C340032023B2A
:104AA000A244B6414000000000002CBC0032023B92
:104AB000A244B6414000000000002C780000483CB1
:104AC000240000000000F800007E63A30000883C82
:104AD000A00000000000F800007E63830000483D55
:104AE0002C0000000000F800007E639300014C3DA4
:104AF000A000000000000000000000000000483E90
:104B00002C0000000000F800007E63A30001083EB6
:104B1000A00000000004F800007E63A30000283F0E
:104B2000200000000000F800007E63A300002A00BF
:104B3000200000000000000000001000009600406F
:104B400020000000000003337000000000028040DD
:104B5000A000000003FC033377F8000000002441AC
:104B600022000000002002000000000000004E4172
:104B7000A000000000004B7800000000000280420E
:104B80002000000003FC033377F800000002A2427B
:104B9000A000001140000003800028000000224314
:104BA000200000014000000380002C0000050043AD
:104BB000A000000003FC133377F80000000C8244CF
:104BC000200000014000000000002C0000002044F4
:104BD000A333C3C3C3FF333377F800000032024569
:104BE0002244B6414000000000002C100001464560
:104BF000A0019C7F0000080F0058010700064646F0
:104C000020019C7F0000080F0058790700320E46F3
:104C1000A000000000004B77333000000000244764
:104C200022000000002002000000000000002A2EE8
:104C3000A0000000000000000000008F00002A33E8
:104C4000A0000000000000000000009000002A36D4
:104C5000A0000000000000000000009100002C00F7
:104C600020000000000000000000000000320E499B
:104C7000A000000000000000000000000000244A26
:104C800023E00000002002000000000000002A2EA7
:104C9000A0000000000000000000009500002A3382
:104CA000A0000000000000000000009600002A366E
:104CB000A00000000000000000000000000108004B
:104CC000200000000000F800000007830002804C74
:104CD000A000000003FC033377F800000000244D1F
:104CE00022003200272000000A71100000004E4D03
:104CF000A000000000004B2F333000000002804E67
:104D00002000000003FC033377F800000002A24EED
:104D1000A000001140000003800028000000224F86
:104D2000200000014000000380002C000005004F1F
:104D3000A000000003FC133377F80000000C825041
:104D4000200000014000000000002C000000205066
:104D5000A033C3C3C3FF333377F80000000C825184
:104D60002244B6614000000000002C34000A0051CB
:104D7000A833C3C3C3FF333377F8000000140252D3
:104D80002244B6414000000000002C3400002452B0
:104D9000A2003200272000020A71100000014653D1
:104DA00020059C7F0000080F0058012B0006465389
:104DB000A0059C7F0000080F0058792B00010854C3
:104DC000200000000007F800000007D3000288560A
:104DD000A00000000006F800000007D300000E55F8
:104DE000200000000000000000000000000004554A
:104DF000A3E03200272000020A71100000000856CC
:104E0000200000000007F800000007D3000008564B
:104E1000A00000000006F800000007D300002057A3
:104E2000200000000000133377F800000003A257B1
:104E3000A00244C14000000380002C3400008058D0
:104E40002000000000000331700000000000205826
:104E5000A0000000000003337000000000002C16CA
:104E60002000000000000000000000000010000012
:104E700000000000000000000000000000028001AF
:104E80002000000003FC033377F800000000240139
:104E9000A2003200272000000A71100000004E021C
:104EA0002000000000004B3599A0000000028002A5
:104EB000A000000003FC033377F800000002A20307
:104EC00020000011400000038000280000002203A1
:104ED000A00000014000000380002C000005000439
:104EE0002000000003FC133377F80000000C82045C
:104EF000A00000014000000000002C000000200580
:104F00002033C3C3C3FF333377F80000000A020520
:104F1000A00244E14000000000002CBC000280061A
:104F20002833C3C3C3FF333377F80000000A0E06EB
:104F3000A0003FFCCCC84B3599A0007F00140207AD
:104F4000200244C14000000000002CBC00002407E7
:104F5000A2003200272000020A711000000146085A
:104F600020059C7F00A13A0F0058012B0007E6089E
:104F7000A0059C7F00A13A0F0058792B00C30E09B1
:104F800030002000359F4B2F3330ABDF0000A609E7
:104F9000B0059C7F00A13A0F0258792B09FCC60C82
:104FA000B0059C7F00A13A0F0058792B00000E0C31
:104FB000A0003FF800004BBF3330007F00000E0B15
:104FC00020003FFFCA614BBF3330ABDF0000060B50
:104FD000A0059C7F00A13A0F0258792B0000060C17
:104FE00020059C7F00A13A0F0058792B00000E0C81
:104FF000A000200800004B2F3330007F00002A0D56
:105000002000000000000000008C400000002C0D7B
:10501000A0000000000000000000000000002A0DB9
:1050200020000000000000000000601C003E8E0E0A
:10503000A0003FFEF1314BBF333003C70000200F0B
:10504000200000000000133377F800000003A20FD7
:10505000A00244C14000000380002CBC006002108C
:10506000200244C14000000000002CBC0000801061
:10507000A0000000000003317000000000002011BB
:1050800020000000000003337000000000002A0030
:1050900020000000000000000000100000002A00B6
:1050A000A0000000000000000000002400002A1101
:1050B000A0000000000000000000102500002A22CF
:1050C000A0000000000000000000002600002A33BD
:1050D000A0000000000000000000002700002A00DF
:1050E00020000000000000000000100000002A1155
:1050F000A0000000000000000000002900002A00BD
:10510000200000000000000000001000E84F6C15B7
:10511000A0000000000000000000000000002A00C5
:10512000200000000000000000001000E84EEC1617
:10513000A0000000000000000000000000002A178E
:1051400020000000000000000000100000002C17EC
:10515000A0000000000000000000000000002C186B
:1051600020000000000000000000000000002C18DB
:10517000A0000000000000000000000000002C194A
:1051800020000000000000000000000000002C19BA
:10519000A0000000000000000000000000002C1A29
:1051A00020000000000000000000000000002C1A99
:1051B000A0000000000000000000000000002C1B08
:1051C00020000000000000000000000000002C1B78
:1051D000A0000000000000000000000000002C1CE7
:1051E00020000000000000000000000000002C1C57
:1051F000A0000000000000000000000000002C1DC6
:1052000020000000000000000000000000002C1D35
:10521000A0000000000000000000000000002C1EA4
:1052200020000000000000000000000000002C1E14
:10523000A0000000000000000000000000002C1F83
:1052400020000000000000000000000000002C1FF3
:10525000A0000000000000000000000000002C2062
:1052600020000000000000000000000000002C20D2
:10527000A0000000000000000000000000002C2141
:1052800020000000000000000000000000002C21B1
:10529000A0000000000000000000000000002C2220
:1052A00020000000000000000000000000002C2290
:1052B000A0000000000000000000000000002C23FF
:1052C00020000000000000000000000000002C236F
:1052D000A0000000000000000000000000002C24DE
:1052E00020000000000000000000000000002C244E
:1052F000A0000000000000000000000000002C25BD
:1053000020000000000000000000000000002C252C
:10531000A0000000000000000000000000002C269B
:1053200020000000000000000000000000002C260B
:10533000A0000000000000000000000000002C277A
:1053400020000000000000000000000000002C27EA
:10535000A0000000000000000000000000002C2859
:1053600020000000000000000000000000002C28C9
:10537000A0000000000000000000000000002C2938
:1053800020000000000000000000000000002C29A8
:10539000A0000000000000000000000000002C2A17
:1053A00020000000000000000000000000002C2A87
:1053B000A0000000000000000000000009C40C0074
:1053C0002000000000000000000000000001082B89
:1053D000A00000000000F800000007830096002CE9
:1053E0002000000000000333700000000000462C85
:1053F000A0041C7F00000000000001030000262D17
:1054000020041C7F000000000800010300002A1196
:10541000A0000000000000000000005B00002C2E37
:1054200060000000000000000000000000002A16DC
:105430002000000000000000000000580002822F41
:105440002244B6414000000000002C100032002F22
:10545000A333C3C3C3FF333377F8000000004830E1
:10546000240000000000F800003E63A30000883024
:10547000A00000000000F800003E638300004831F7
:105480002C0000000000F800003E639300014C3146
:10549000A0000000000000000000000000004832F2
:1054A0002C0000000000F800003E63A30001083259
:1054B000A00000000004F800003E63A300002833B1
:1054C000200000000000F800003E63A300002A0056
:1054D0002000000000000000000010000032003535
:1054E000AB33C3C3C3FF333377F80000003200355A
:1054F000A333C3C3C3FF333377F800000032003552
:10550000AB33C3C3C3FF333377F800000032003539
:10551000A333C3C3C3FF333377F80000000048361A
:105520002C0000000000F800003E63C300002A00C9
:1055300020000000000000000000100000004837BC
:10554000240000000000F800003E6393000088374C
:10555000A00000000000F800003E6383000048380F
:10556000240000000000F800003E63A3000088381B
:10557000A00000000000F800003E638300002A0045
:105580002000000000000000000010000032023B7C
:10559000A244B6414000000000002C300032023B23
:1055A000A244B6414000000000002C200032023B23
:1055B000A244B6414000000000002C340032023BFF
:1055C000A244B6414000000000002CBC0032023B67
:1055D000A244B6414000000000002C780000483C86
:1055E000240000000000F800007E63A30000883C57
:1055F000A00000000000F800007E63830000483D2A
:105600002C0000000000F800007E639300014C3D78
:10561000A000000000000000000000000000483E64
:105620002C0000000000F800007E63A30001083E8B
:10563000A00000000004F800007E63A30000283FE3
:10564000200000000000F800007E63A300002A0094
:105650002000000000000000000010000096004044
:1056600020000000000003337000000000028040B2
:10567000A000000003FC033377F800000000244181
:1056800022000000002002000000000000004E4147
:10569000A000000000004B780000000000028042E3
:1056A0002000000003FC033377F800000002A24250
:1056B000A0000011400000038000280000002243E9
:1056C000200000014000000380002C000005004382
:1056D000A000000003FC133377F80000000C8244A4
:1056E000200000014000000000002C0000002044C9
:1056F000A333C3C3C3FF333377F80000003202453E
:105700002244B6414000000000002C100001464534
:10571000A0019C7F0000080F0058010700064646C4
:1057200020019C7F0000080F0058790700320E46C8
:10573000A000000000004B77333000000000244739
:1057400022000000002002000000000000002A2EBD
:10575000A0000000000000000000008F00002A33BD
:10576000A0000000000000000000009000002A36A9
:10577000A0000000000000000000009100002C00CC
:1057800020000000000000000000000000320E4970
:10579000A000000000000000000000000000244AFB
:1057A00023E00000002002000000000000002A2E7C
:1057B000A0000000000000000000009500002A3357
:1057C000A0000000000000000000009600002A3643
:1057D000A000000000000000000000000001080020
:1057E000200000000000F800000007830002804C49
:1057F000A000000003FC033377F800000000244DF4
:1058000022003200272000000A71100000004E4DD7
:10581000A000000000004B2F333000000002804E3B
:105820002000000003FC033377F800000002A24EC2
:10583000A000001140000003800028000000224F5B
:10584000200000014000000380002C000005004FF4
:10585000A000000003FC133377F80000000C825016
:10586000200000014000000000002C00000020503B
:10587000A033C3C3C3FF333377F80000000C825159
:105880002244B6614000000000002CBC000A005118
:10589000A833C3C3C3FF333377F8000000140252A8
:1058A0002244B6414000000000002CBC00002452FD
:1058B000A2003200272000020A71100000014653A6
:1058C00020059C7F0000080F0058012B000646535E
:1058D000A0059C7F0000080F0058792B0001085498
:1058E000200000000007F800000007D300028856DF
:1058F000A00000000006F800000007D300000E55CD
:10590000200000000000000000000000000004551E
:10591000A3E03200272000020A71100000000856A0
:10592000200000000007F800000007D30000085620
:10593000A00000000006F800000007D30000205778
:10594000200000000000133377F800000003A25786
:10595000A00244C14000000380002CBC000080581D
:1059600020000000000003317000000000002058FB
:10597000A0000000000003337000000000002C169F
:1059800020000000000000000000000000100000E7
:105990000000000000000000000000000002800184
:1059A0002000000003FC033377F80000000024010E
:1059B000A2003200272000000A71100000004E02F1
:1059C0002000000000004B3599A00000000280027A
:1059D000A000000003FC033377F800000002A203DC
:1059E0002000001140000003800028000000220376
:1059F000A00000014000000380002C00000500040E
:105A00002000000003FC133377F80000000C820430
:105A1000A00000014000000000002C000000200554
:105A20002033C3C3C3FF333377F80000000A0205F5
:105A3000A00244E14000000000002CBC00028006EF
:105A40002833C3C3C3FF333377F80000000A0E06C0
:105A5000A0003FFCCCC84B3599A0007F0014020782
:105A6000200244C14000000000002CBC00002407BC
:105A7000A2003200272000020A711000000146082F
:105A800020059C7F01103A0F0058012B0007E60803
:105A9000A0059C7F01103A0F0058792B00270E09B2
:105AA000300020010C1A4B2F3330225F0000A60972
:105AB000B0059C7F01103A0F0258792B01FCC60CEF
:105AC000B0059C7F01103A0F0058792B00000E0C96
:105AD000A0003FF800004BBF3330007F00000E0BEA
